:020000022000DC
:107000000000042029010300690103006B01030053
:107010006D0103006F010300710103000000000017
:10702000000000000000000000000000A5000300B8
:107030007501030000000000C50003007901030092
:10704000B50203007B0103007B0103007B01030009
:107050007B0103007B010300ADDD02007B01030027
:107060007B0103007B0103007B0103007B01030024
:107070007B0103007B0103007B0103007B01030014
:107080007B010300F5FD02007B0103007B0103008F
:107090007B0103007B0103007B0103007B010300F4
:1070A0007B0103007B0103007B0103007B010300E4
:1070B0007B0103007B0103000000000000000000D2
:1070C0007B0103007B0103007B010300A10303009C
:1070D0007B0103007B0103007B0103002189020087
:1070E0007B0103007B0103007B0103000000000023
:1070F000000000007B0103000000000019040300F1
:10710000000000000000000000000000000000007F
:10711000000000000000000000000000000000006F
:10712000000000000000000000000000000000005F
:10713000000000000000000000000000000000004F
:10714000000000000000000000000000000000003F
:10715000000000000000000000000000000000002F
:10716000000000000000000000000000000000001F
:10717000000000000000000000000000000000000F
:1071800000000000000000000000000000000000FF
:1071900000000000000000000000000000000000EF
:1071A00000000000000000000000000000000000DF
:1071B00000000000000000000000000000000000CF
:1071C00000000000000000000000000000000000BF
:1071D00000000000000000000000000000000000AF
:1071E000000000000000000000000000000000009F
:1071F000000000000000000000000000000000008F
:10720000F1EE103A43F08073E1EE103A704700BFA0
:1072100010B5054C237833B9044B13B10448AFF3D0
:1072200000800123237010BD0C63002000000000CB
:10723000C83A030008B5034B1BB103490348AFF339
:10724000008008BD0000000010630020C83A030061
:10725000154B002B08BF134B9D46A3F5803A002128
:107260008B460F461348144A121A09F009FF0F4BB8
:10727000002B00D098470E4B002B00D098470020E1
:10728000002104000D000D48002802D00C48AFF387
:10729000008009F099FE2000290008F09DFF09F008
:1072A0007FFE00BF00000800000004200000000076
:1072B000000000000C630020D485002000000000C6
:1072C0000000000008B517484FF4E13100F0E2FF7C
:1072D000154800F0CFF820B91449124806F016FD01
:1072E000FEE711480122002100F0B8FD00220E48FF
:1072F000072100F017FD0C48002100F01BFD0A4893
:10730000012100F03BFD0A49074800F059FD012228
:107310000548114600F0A8FCBDE8084005490148B1
:1073200006F0F4BCC069002028630020703503001B
:10733000046000209835030000B50949094883B06E
:1073400006F0E4FC0122084900920023074800F0FF
:1073500035F94FF47A7003B05DF804EB06F074BDB4
:10736000B8350300C06900200060002028630020B9
:10737000014800F047B800BF286300201E4B0021E1
:10738000012270B5C3F810111A61054606F050FDD0
:107390001A4E044604E006F04BFD031BFA2B10D8EE
:1073A0003368002BF7D0144B06210022C3F81021BC
:1073B000C3F80012D3F85015082903D9002385F823
:1073C000253470BD0121C3F85421196006F030FD49
:1073D0000B4E044604E006F02BFD031BFA2BF0D8FD
:1073E0003368002BF7D0044B0022C3F8542100234C
:1073F00085F82534E5E700BF00100040101100407B
:1074000054110040F0B41A4940F2055520224FF4BF
:1074100016747326A0F81A5280F82624A0F8444463
:107420000022A0F8066100F2474500F5847400F5DB
:10743000CD6680F8282480F82324A0F8242480F83E
:10744000432480F846240027C1F80C55C1F81045A4
:1074500000F5AA65C1F8086500F5CF6443F2390666
:10746000C1F81455C4E90067F0BC80F811227047D8
:1074700000F000404FF080430021012270B5C3F8B6
:1074800000111A60044606F0D3FC454E054604E0A0
:1074900006F0CEFC431BFA2B7FD83368002BF7D0C5
:1074A0004FF0804300210122C3F804119A6006F0D6
:1074B000BFFC3C4E054604E006F0BAFC431BFA2B29
:1074C0006BD83368002BF7D0374B384A384E394DDC
:1074D0000120C3F8FC0FC3F8142594F8262442EACF
:1074E000022242F08272C3F818254FF0E732C3F847
:1074F0001C2500214FF04332C3F82025C3F8246532
:10750000C3F82855C3F83005C3F82C15D3F81C254B
:10751000C4F83424D3F82425C4F83824D3F81C251F
:10752000C4F82C24D3F82425C4F830240222C3F84C
:107530003425214D4FF6FF72C3F83C25C3F838556A
:1075400040F201220825C3F80445C3F81015C3F81A
:107550005026C3F80C554C224FF00135C3F80825CE
:10756000C4F8125294F8126284F82314320442EAE6
:107570000622C4F81652C3F81425D3F81825120CA5
:107580001204C3F8182594F82624D3F8181542EAF3
:1075900002220A43C3F8182570BD002070BD00BF49
:1075A0000001004004010040001000400001010003
:1075B000E743C323A363E313211001002DE9F04F38
:1075C0002DED028B044689B090F8230494F82754DB
:1075D0009DF85060059508EE101A079602920493E4
:1075E000002800F051822A46C14B0132D2B2A3FBDF
:1075F0000213D11A03EB51039B08C3EBC303D31A45
:107600005B00DBB2059394F8113284F827241BB198
:10761000079A002A40F0C881002200920692009A40
:10762000DFF8E892B34DDFF8E88284F843240028BD
:1076300040F05281059A60702270002B00F0918119
:10764000079B002B00F08D8194F81232002B40F044
:107650004B81224608200523B4F8786694F87A1600
:10766000E652234420449970D4F88136136094F88C
:1076700085361371029B04F20B11A3F1080209F085
:10768000D7FC9D4B00210122C3F80C119A6006F033
:10769000CFFB064605E006F0CBFB801BFA2800F284
:1076A0004681D9F80030002BF5D0934B0022C3F867
:1076B0000C21049A002A40F0EA81D3F82C252244B8
:1076C00092F812220392002A00F0E181D3F83025CB
:1076D000D3F82C05019294F8231401228240C3F8B8
:1076E0003025E9B994F81212049884F823040A04A6
:1076F00042EA012294F82614069184F82604C3F87D
:107700001425D3F81825120C1204C3F8182594F880
:107710002624D3F8181542EA02220A43C3F8182592
:10772000754B00210122C3F810111A6106F080FB8D
:10773000064604E006F07CFB801BFA2820D82B6864
:10774000002BF7D06C4B00220121C3F81021C3F8A5
:107750000022C3F85821C3F83021596006F068FBB5
:10776000064604E006F064FB801BFA2808D8634B49
:107770001B68002BF6D0604A0123936084F82534FF
:1077800094F82334B4F84464002B40F0D8805A4B6A
:10779000D3F81025002A00F0ED80D3F81035022B25
:1077A00000F0E880873ED8F80C30DF0126EAE67664
:1077B00040F1B080524B1A68D00740F1AB805F684F
:1077C000BF09DFF834B1DFF840A107E01368DB0739
:1077D0000FD553689B09DB1BB34214D8DBF830315B
:1077E000474A83B9DBF834316BB9D8F80C30D9018A
:1077F000ECD407F08DFCA0FB0A01830A43EA815315
:10780000DB1BB342EAD93C4BD3F83021002A40F0CD
:107810005481D3F8341109B1C3F8342194F81B0210
:1078200010EBC01004D0374BC00143F00103984760
:10783000314B00210122C3F810111A6106F0F8FA49
:10784000064604E006F0F4FA801BFA2811D82B68EB
:10785000002BF7D0284B06210022C3F81021C3F8D3
:107860000012D3F85015082940F28780002384F8CD
:10787000253494F8230400286AD194F81212069A49
:1078800084F826241C4B84F823040A0442EA0122CB
:10789000C3F81425D3F81825120C1204C3F81825C0
:1078A00094F82624D3F8181542EA02220A43C3F8B2
:1078B0001825019AC3F83025009A94F81A3201323B
:1078C00093420092C0F2EF80009A94F8113284F84B
:1078D000432400283FF4AEAE059A6270029A2270EB
:1078E000002B37D0079BABB3A21C0A200723B3E6BB
:1078F000254992241011004000100040581100400A
:10790000001000E0E035030040420F000C11004081
:10791000F0ED00E007F0FCFBC74BA0FB0301870A7A
:1079200047EA81574DE7C549C54806F0EFF90023FE
:107930001846039309B0BDEC028BBDE8F08F94F8B4
:107940002434A3B194F82634202B10D8C8362AE763
:10795000BC4BAEE7A01C029A18EE101A09F068FBA7
:107960008FE694F81232002BF4D12046F3E706F2AA
:10797000EE2618E7A6F5967615E70121C3F85421FF
:10798000196006F055FA064605E006F051FA801B2C
:10799000FA283FF66EAFAC4B1B68002BF5D0A94B15
:1079A0000022C3F8542161E7029B002B79D0A74E37
:1079B000DFF8B08204F2816704F2866A4FF00009B2
:1079C00006F036FA054604E006F032FA401B642859
:1079D000ADD83368002BF7D0C8F80091D8F8083537
:1079E00007F8013B5745EBD1994DD4F89026C4F8E0
:1079F00078269848029AC4F87C9618EE101AC5F8B2
:107A0000040584F8482404F24A4084F8479484F832
:107A1000499409F00DFB40F20912002104F584702D
:107A200009F02EFB0123C5F80091C5F804912B60E5
:107A300006F0FEF9884E054605E006F0F9F9401B10
:107A4000FA283FF674AF3368002BF6D0804BD3F89A
:107A50000821002A7FF46BAF94F80931002B3FF422
:107A600066AFD4F8903602987C4901330C30C0B22E
:107A70008B42C4F89036029094F8113294F82304A3
:107A800088BFC4F89026C7E56A1CD2B2BBE50123C3
:107A9000184684F82934039309B0BDEC028BBDE885
:107AA000F08F1346B8E50023184684F82934039371
:107AB00009B0BDEC028BBDE8F08F94F82434002BA4
:107AC00079D02578002D76D094F81132002B00F073
:107AD000AB80079B04F21D26002B00F09E80A5F1D1
:107AE0000802304622EAE27204F10A0109F0A0FA23
:107AF000A71C3B68C4F881363B7984F88536234659
:107B0000DFF84C8133F8072F55499B7884F87A3693
:107B10000027A4F8782604F24A402A46C8F804153B
:107B2000314609F085FA394684F8485484F8477498
:107B300084F8497440F2091204F5847009F0A0FA3F
:107B40000123C8F80071C8F80471C8F8003006F0C5
:107B50006FF9414F054605E006F06AF9401BFA2827
:107B60003FF6E1AE3B68002BF6D0394BD3F8082145
:107B7000002A7FF4D8AED3F80034002B3FF4D3AE04
:107B800094F80931002B3FF4CEAE25780B2D02D9A5
:107B90000C3DEDB2257030462A4604F20B1109F077
:107BA00047FA284B84F81C52D3F8083484F83D3443
:107BB000012384F83C34234D0023C5F8303120469E
:107BC000FFF7DCFB94F82334D3B994F81212069A29
:107BD00084F826240A0442EA012284F82334C5F8F2
:107BE0001425D5F818351B0C1B04C5F8183594F866
:107BF0002634D5F8182543EA03231343C5F818356E
:107C0000104A01990398C2F83015012384F82934E9
:107C100009B0BDEC028BBDE8F08FA71C3046394699
:107C20002A4609F005FA64E72A46A11C04F21D2041
:107C300009F0FEF9B5E700BF40420F00D035030060
:107C4000C0690020001000405411004000D10040E5
:107C500000F000400000010104F10040400D03006D
:107C60000100010100D000402B4B2DE9F041002420
:107C7000C3F8104101241C610E460446904606F0EC
:107C8000D7F8264F054604E006F0D2F8401BFA2844
:107C900029D83B68002BF7D01F4B0022C3F81021D6
:107CA000B8F1000F07D0D4F83424C3F81C25D4F859
:107CB0003824C3F824255EB1174BB4F80611002010
:107CC0004FF40072C3F82C05C3F84415C3F85026CE
:107CD000114B0622C3F80022D3F85025082A04D9F4
:107CE000002384F82534BDE8F08100210122C3F887
:107CF00054111A6006F09CF8094E054604E006F09F
:107D000097F8431BFA2BEED83368002BF7D0024BC1
:107D10000022C3F85421E3E7001000401011004096
:107D200054110040024B41EA0222C3F80825704773
:107D30000010004010B50446082200F2122009F09D
:107D40009FF994F82334B3B994F812120A4A0B0439
:107D500043EA0123C2F81435D2F818351B0C1B0472
:107D6000C2F8183594F82634D2F8181543EA0323DC
:107D70000B43C2F8183510BD0010004010B490F845
:107D800012420E4A80F82614230443EA04230024F6
:107D900080F82344C2F81435D2F818355DF8044B46
:107DA0001B0C1B04C2F8183590F82634D2F81815AD
:107DB00043EA03230B43C2F8183570470010004014
:107DC00030B4D1F801300D68234C19091B0103F0C0
:107DD000F03301F00F3119438B08890001F0CC31E9
:107DE00003F033330B4359085B0001F055312A0986
:107DF00003F0AA332D010B4305F0F03502F00F32EA
:107E00002A431BBAC4F81C3593089200D4F82415F1
:107E100002F0CC3203F03333134321F0FF015A0850
:107E20005B00C4F8241502F0553203F0AA33D4F8ED
:107E3000241513431BBA41EA13630022C4F8243506
:107E4000C4F82C25D4F81C35C0F83434D4F82435C3
:107E5000C0F8383430BC70470010004059B10129D7
:107E60000ED0022911D003290A4B14BF0022082288
:107E7000C3F80C257047074BF422C3F80C25704754
:107E8000044B0222C3F80C257047024B0622C3F8AC
:107E90000C257047001000400146014800F00EBB61
:107EA000DC69002038B5064B1D783DB10024204622
:107EB000013400F051FEE0B28542F9D838BD00BF70
:107EC000D8690020407DFF280AD010B500F0E4FDFD
:107ED000044608B1204610BD08F0F0FB204610BD56
:107EE00000207047407DFF280ED000B583B00DF113
:107EF000070100F027FE20B19DF8070003B05DF8F0
:107F000004FB4FF0FF30F9E74FF0FF30704700BF40
:107F1000407DFF280FD000B583B001220DF107018D
:107F200000F0C6FD20B19DF8070003B05DF804FB2A
:107F30004FF0FF30F9E74FF0FF307047407DFF28EA
:107F400001D000F009BE7047407DFF2801D000F04D
:107F50006BBE0020704700BFF8B50646407DFF2885
:107F60001CD017465AB10D46144600F071FD294643
:107F7000224680B1707D00F033FE241A01D13846CC
:107F8000F8BD054408F09AFB707D00F061FD2946BC
:107F900022460028EED13F1B3846F1E70020F8BD0D
:107FA000002A00F097802DE9F0434B4991F81C918D
:107FB00091F81D7191F81E8193B01D46064608F197
:107FC000010309F102001446BA1C81F81C0181F872
:107FD0001D2181F81E3101A84222002109F050F82C
:107FE000412D73D9327D8DF814207A1C204662F021
:107FF0007F0440F60832ADF8042040F2094540F213
:108000000122ADF80C50ADF810202425334A8DF82C
:108010001650069209F1010304220125DBB28DF806
:108020001C508DF81F208DF8302040F2022640F2BF
:10803000075240F224658DF81E308DF827308DF8F8
:108040003130ADF808600223ADF82450ADF8282097
:10805000ADF83820224E8DF80730032508228DF820
:1080600012308DF833308DF83B30089605238DF8AB
:108070002B508DF82C2067F07F074FF411660A25EE
:1080800040228DF81530ADF82E608DF8345001A9DE
:108090008DF806908DF80E908DF826908DF83A8028
:1080A0008DF82A7007268DF83C2044F20205422202
:1080B0008DF840308DF841408DF83F60ADF842506A
:1080C00008F0B6FF422013B0BDE8F083002013B0E3
:1080D000BDE8F08342207047DC69002020010524C0
:1080E0002402060570B50368184A5B6882B09342A3
:1080F0008DF8071021D10546407DFF2823D000F0E0
:10810000A7FC0DF1070601243146224688B1687D9F
:1081100000F066FD241A02D1012002B070BD0644B1
:1081200008F0CCFA687D00F093FC31462246002826
:10813000EDD1C4F1010002B070BD01220DF10701C3
:10814000984702B070BD002002B070BD597F020098
:10815000002A00F097802DE9F0434B4991F81C91DB
:1081600091F81D7191F81E8193B01D46064608F1E5
:10817000010309F102001446BA1C81F81C0181F8C0
:108180001D2181F81E3101A84222002108F078FF4C
:10819000412D73D932798DF814207A1C204662F073
:1081A0007F0440F60832ADF8042040F2094540F261
:1081B0000122ADF80C50ADF810202425334A8DF87B
:1081C0001650069209F1010304220125DBB28DF855
:1081D0001C508DF81F208DF8302040F2022640F20E
:1081E000075240F224658DF81E308DF827308DF847
:1081F0003130ADF808600223ADF82450ADF82820E6
:10820000ADF83820224E8DF80730032508228DF86E
:1082100012308DF833308DF83B30089605238DF8F9
:108220002B508DF82C2067F07F074FF411660A253C
:1082300040228DF81530ADF82E608DF8345001A92C
:108240008DF806908DF80E908DF826908DF83A8076
:108250008DF82A7007268DF83C2044F20205422250
:108260008DF840308DF841408DF83F60ADF84250B8
:1082700008F0DEFE422013B0BDE8F083002013B00A
:10828000BDE8F08342207047DC690020200105240E
:1082900024020605437DFF2B02D10A4B1A7802B156
:1082A000704710B500F110044275074920460122BD
:1082B0001A7000F0D7F921460448BDE8104000F0DC
:1082C000DFB800BFD8690020E8350300DC69002072
:1082D00001B900B1704700B583B0694600F0CEFB2C
:1082E000009BB3F5966F02D003B05DF804FB00F07D
:1082F0002DFBF9E730B4084B084A4FF47F4102F1F7
:108300000805002430324FF47A709982C3E90140A5
:108310001D601A6130BC7047C0690020F835030049
:108320000378002B00F09280F0B50546002004464B
:108330002E4603E001342B5D2E19C3B103F1400238
:10834000D2B2012AF6D9F42BF4D81A0610D401229D
:10835000A3F55846B6F5006FECD31444202806D098
:1083600021F810302B5D01302E19002BE6D1F0BD25
:1083700003F0E002C02A52D003F0F002E02A61D0FC
:1083800003F0F802F02AD5D103F00703042772782E
:1083900002F0C00CBCF1800FCCD196F802C00CF0FA
:1083A000C00E02F03F02BEF1800F42EA8313C1D13A
:1083B0000CF03F0C032F4CEA83132AD0F27802F022
:1083C000C006802EB6D102F03F0242EA8313A3F525
:1083D0008032B2F5801F38BF0427ABD2A3F55842D4
:1083E000B2F5006FA6D3B3F5803F3C44B6D31E2848
:1083F000BDDCA3F5803342009E0A0A44C3F309039F
:10840000A6F52056A3F5105321F8106053800230D2
:1084100091E7A3F50062B2F5784FDFD38AE772786F
:1084200002F0C006802E03F01F0383D102F03F024A
:1084300042EA8313A3F18002B2F5F06FBFF47AAF82
:10844000022285E703F00F030327A0E718467047D1
:1084500090F850310B2B0CD871B110B403F14802D5
:108460005C1C80F850415DF8044B40F8221018461F
:1084700070470023184670470B461846704700BFE8
:1084800070B504460E68B4F81821B4F81A3165695D
:1084900036689B1A08469BB294F81C112A44B047D0
:1084A00058B1B4F81831626903449BB2A4F818318A
:1084B000538094F81C311371012070BD2DE9F043F5
:1084C000264DDFF8A890AC4604468846BCE80F006D
:1084D00089B003AF0FC703AE0FCE05F1140E2546CA
:1084E0000FC59EE80700DCF800303B806B4636681D
:1084F0002E8003C36B4603CB012504F118034FF410
:1085000080766361A061E16184F8202004F59870B1
:10851000C4F818912022A4F81C61002184F81E518F
:1085200008F0AEFD0E4E0F48A571042240F2EF2375
:1085300040F209470021C4E94A0184F85021A38090
:108540004FF4E131C4E948760748FFF7A3FE4046FF
:1085500000F0EAF9284609B0BDE8F0835C36030074
:108560002C36030034360300C069002009000001E6
:108570002DE9F047D0F82C0188B00E4630B1023119
:10858000FFF7CEFEC0B208B0BDE8F087684600F045
:10859000DFF98646F8B1431E06F10409DBB2114D3E
:1085A000E84609EB830904AC95E80F0018F8017B55
:1085B00084E80F0007F00F0C0DF1200AD4440AEBF9
:1085C00017171CF810CC17F8103CA6F804C07380DD
:1085D0000436B145E8D14FEA4E00C0B208B0BDE85C
:1085E000F08700BF4836030000487047DC69002070
:1085F000014B5869704700BFDC69002010B5B0B16D
:1086000003281CD0154C94F85031834223D94830AC
:1086100004F5AA7154F82000FFF782FEC3B20133BB
:108620005B0043F440730E48A4F8523110BD0B4C6C
:10863000D4F82031A4F854314FF44173F3E70849DA
:10864000A1F5A9742046FFF793FF431C5B0043F498
:1086500040739BB2E7E7002010BD00BFDC6900203B
:108660002E6B002010B504460248FFF7F1FE207182
:1086700010BD00BFDC690020024B53F8200000B1A0
:10868000C0687047706B002030B4094CBDF80850CA
:1086900054F8204044B1246934B10846A446114638
:1086A0001A462B4630BC6047002030BC704700BFE4
:1086B000706B002030B4084CBDF8085054F82040CE
:1086C00044B1646934B10846A44611461A462B46A3
:1086D00030BC604730BC7047706B0020024B18689C
:1086E00008B190F860007047786B00202DE9F843DE
:1086F000234C2568002D40D01E462C2303FB00533D
:108700000446D3F8209088461746B9F1000F30D0C0
:10871000484609F0CBF80828024628BF08222C203A
:1087200000FB0454D4E90954DFF85CC0154B002D5C
:1087300008BF654649464046002C08BF1C4608F065
:1087400077FC284609F0B2F810280246294628BFCF
:108750001022384608F06CFC204609F0A7F80428DF
:1087600002462146304628BF0422BDE8F84308F0FF
:108770005FBCDFF818900822D1E7BDE8F88300BF9E
:10878000786B002098360300883603007C3603009F
:1087900070B5104E3368CBB12C2404FB0034054671
:1087A00062691AB19047336884F832002C2202FBC8
:1087B000053393F832400CB1204670BD284623465D
:1087C0003A22022101F074F8204670BD1C46204672
:1087D00070BD00BF786B0020074B1B6853B110B40D
:1087E0002C2404FB0030C46A038E0C605DF8044B3B
:1087F00013807047704700BF786B002008B52022B7
:108800000023052101F054F84FF0FF3008BD00BFF0
:1088100030B4084C256855B10446084611461A463E
:108820002C2303FB0454E3690BB130BC184701202F
:1088300030BC7047786B002030B4094C029A256830
:108840004DB10446084619462C2303FB0454A36883
:108850000BB130BC18474FF0FF3030BC704700BF41
:10886000786B002030B4094C029A25684DB104465B
:10887000084619462C2303FB0454E3680BB130BCB3
:1088800018474FF0FF3030BC704700BF786B0020B6
:10889000044B1B682BB12C2202FB0030036903B18F
:1088A00018477047786B0020054B1B682BB12C22B2
:1088B00002FB0030836903B118470120704700BFF5
:1088C000786B002004F062BF00B5134B402283B0E8
:1088D00083F82723002002F09BFF4FF08043002401
:1088E000D3F838548DF80040684607F0A3FC0B4BD2
:1088F000019301A807F0CAFC07F0D4FCEB0707D4EA
:1089000000214FF0FF3003F005F8FFF7CBFAF7E74F
:10891000204604F03BFFF3E700E100E0C5880200D9
:10892000002004F07FBB00BF00B5002383B003220A
:10893000CDE9002303490448C82206F0F9F903B041
:108940005DF804FB9C360300C988020008F068B893
:108950004FF08052536E1BBA0360136E1BBA436014
:108960000820704700487047A436030070B51E4DBC
:108970002B6883B1012913D11478C4F34114012C5D
:108980000BD0022C07D15478012C0BD0022C07D12C
:108990009388072B20D0002070BD517822290BD05E
:1089A000012070BD9C69002CF5D023781146224629
:1089B000BDE8704003F042BE5188003918BF012164
:1089C0005975114603F020FE2A68D369002BE7D0C1
:1089D000507D9847204670BD044C1146238922469D
:1089E000BDE8704003F02ABE7C6B00200C600020C4
:1089F00070B5044602F0F4FE08B9002070BD02F024
:108A0000F7FE05460028F8D1E378002BF5D004F1F5
:108A10001006304602F0F0FC3F28EED9E1782846F7
:108A200003F032FD0028E8D0304602F0E5FC3F2894
:108A300008D9E178284604F536724023BDE8704035
:108A400003F042BDE178284603F02EFDD5E700BFD4
:108A500010B5044602F0C4FE08B9002010BD02F0B3
:108A6000C7FE0028F9D104484FF4567303FB0400F5
:108A7000007900F0010010BD846B0020054B4FF41D
:108A8000567202FB0033986808609A899B7B8B7151
:108A90008A807047846B002008B5044B4FF45672EF
:108AA00002FB0030103002F08DFC08BD846B00200A
:108AB0002DE9F8434FF4567404FB00F4204F4FF6B1
:108AC000FE704FF6FF7304F11005824288BF1A460C
:108AD0003D4492B2284602F0A1FC064602F080FE18
:108AE00010B93046BDE8F88302F082FE81460028C6
:108AF000F7D107EB040898F80330002BF1D0284693
:108B000002F07AFC3F28ECD998F80310484603F0AD
:108B1000BBFC0028E5D0284602F06EFC3F2809D9AE
:108B200004F5367298F803103A444846402303F09F
:108B3000CBFCD6E798F80310484603F0B5FCD0E725
:108B4000846B0020034B4FF4567202FB0030103050
:108B500002F0D2BC846B00202DE9F041044602F003
:108B60003FFE10B90020BDE8F08102F041FE06464C
:108B70000028F7D14FF45671DFF8608001FB04F450
:108B800004F124054544284602F01CFC0028E9D0E5
:108B900008EB04073046B97803F076FC0028E1D0F2
:108BA00004F54674444428462146402202F036FC2F
:108BB000054660B1B978224630462B4603F084FC66
:108BC00040B9054B1B68DB07CCD500BECBE7B978B5
:108BD00003F06AFC2846C6E7F0ED00E0846B002055
:108BE00038B5104B4FF4567404FB003405464FF66D
:108BF000FF734FF6FE70824288BF1A46243492B249
:108C0000204602F0B3FC034620461C4602F0DAFB85
:108C10003F2801D8204638BD2846FFF79DFF204653
:108C200038BD00BF846B002008B5044B4FF456726A
:108C300002FB0030243002F0DFFB08BD846B002013
:108C4000F0B5214C214F83B04FF4567200212046DD
:108C500008F016FAFF2300264FF4E132082563716D
:108C6000012304F13801A260A5734FF480721D4600
:108C7000009604F11000A6813E7002F06BFB2B46BB
:108C800004F59C7100954FF4807204F1240002F009
:108C900061FB04F50E71284605F014FB034604F54C
:108CA000227128461D4605F00DFB05B130B9084B71
:108CB0001B68DB0700D500BE03B0F0BDC4E9076543
:108CC000C4E90C0603B0F0BD846B0020806B00206B
:108CD000F0ED00E038B5094C206A256B20B105F0B5
:108CE00089FE0023C4E907332DB1284605F082FE32
:108CF0000023C4E90C33012038BD00BF846B002081
:108D000010B50F4C0F482378002202600271DA0779
:108D100007D59B070BD5BDE810400B48012102F099
:108D2000E7BC103002F0C4FC23789B07F3D406485C
:108D300002F0BEFCBDE810400348012102F0D8BC9F
:108D4000806B0020846B0020A86B0020F0B54B796D
:108D5000022B83B002D18B79022B03D00025284649
:108D600003B0F0BD264FBB782BB1264B1B68DB0749
:108D7000F4D500BEF2E78B783B700C780C440646C5
:108D8000617824294FF009050BD1082A02D80FE099
:108D9000AA420DD323781C442B44617824299DB228
:108DA000F6D005290AD0042902D163790A2B13D001
:108DB0001348FFF71DFE284603B0F0BD214630469C
:108DC00003F03EFB0028D0D0A3787B7023781C44AE
:108DD0002B4461789DB2E6E70B4A27780192022383
:108DE000013200923046E1191A4603F099FA002840
:108DF000BBD005F10E0317FA83F39DB2D8E700BF8D
:108E0000846B0020F0ED00E0866B002038B513780D
:108E100003F06003202B0CD1274C938825789D42CA
:108E200007D15378203B032B03D8DFE803F00A1760
:108E30002004002038BD012930D0032933D001207F
:108E400038BD01290CD00329F9D11C4B002BF6D0D9
:108E50001B490020AFF30080012038BD0129EED16D
:108E600011460723164A03F0E9FB012038BD01290A
:108E700014D00329E3D15588257105F00104114868
:108E800084F0010102F034FC0F4B002BD7D0C5F366
:108E9000400221460020FFF71BFAD0E7114603F0FD
:108EA000B3FB012038BD094B002BC8D051880020EE
:108EB000AFF30080012038BD846B0020000000006B
:108EC0008C6B0020A86B0020D18202000000000003
:108ED0002DE9F0474A4DEA788A420C4607461E467D
:108EE00054D19AB205F5367105F1100002F03EFB3F
:108EF000444BD3B16B79FF2B17D0B6B105F2D7280D
:108F000008EB060AA8F2C72902E0D0450DD06B791C
:108F100018F8012F9A42F8D1484602F063FA002867
:108F2000F3D16979AFF30080EFE7374B23B13748CE
:108F300002F058FA00285BD03148FFF759FDAB78B2
:108F4000A34203D001242046BDE8F087304B13B183
:108F50000020AFF3008002F043FC20BB2D4802F05C
:108F600031FA0028EED1002EECD016F03F06E9D100
:108F7000A978384603F088FA04460028E2D0A97898
:108F800038463346324603F09FFADCE7AB788B4233
:108F9000DCD0214B1C6814F00104D4D000BE0024A6
:108FA0002046BDE8F08702F023FC04460028D5D116
:108FB000184802F007FA0028D0D0A978204603F01C
:108FC00063FA0028CAD015494022A1F53D7002F08D
:108FD00025FA034678B1114AA978204603F074FABD
:108FE0000028AFD10C4B1B68DB07B7D500BEB5E737
:108FF000AFF30080A0E7A97803F056FAAEE700BF10
:10900000846B00200000000000000000946B002032
:1090100000000000A86B0020F0ED00E09C6E002036
:10902000704700BF01207047704700BF704700BF06
:1090300002484FF4CC72002108F022B8DC6E002008
:109040000120704702484FF4CC72002108F018B894
:10905000DC6E00202DE9F0474B79032B82B014D150
:109060000B79C3EBC3051235ADB295420C4607D858
:10907000304F7A7806466AB197F8CD20002A50D052
:109080002D4B1B68DA0700D500BE0025284602B02C
:10909000BDE8F087904692464FF0010E4FF0020C6B
:1090A0002278A11848782128EAD14FF0CC0909FB91
:1090B0000A7907EB0E00C9F8081014F802E00190D5
:1090C00007EB0C02009271441A463046032303F06A
:1090D00027F90028D4D0A379012B04BFE37989F8BC
:1090E0000330CC2303FB0AFA07EB0A0301229A712F
:1090F000A27807F80A209A689978B2F807209A802F
:109100000029C3D008F18C023A443046402303F0D2
:10911000DBF90028BAD1084B1B68DB07B6D500BEC7
:10912000B4E74FF0CD0E4FF0CE0C4FF0CC084FF01F
:10913000010AB5E7DC6E0020F0ED00E0137803F0E3
:109140001F0CBCF1010F14D12DE9F0410C468249EE
:10915000978815460A78FFB2BA4282B006460AD00E
:1091600091F8CC20BA4200F0CB80002002B0BDE8DC
:10917000F081002070470027BC4606220C204FF0EB
:10918000070E13F0600306D1012C00F09F80012030
:1091900002B0BDE8F081202BE7D16B78013B0A2BB0
:1091A000E3D80FF2080858F823F000BF7F920200BE
:1091B00075920200619202006B9102006B910200B5
:1091C0006B9102006B9102006B91020021920200F0
:1091D000F9910200D9910200012C1BD0032CD6D1A9
:1091E0006B88CC2202FB0717DBB260461946BB71C5
:1091F000FFF716FF0120B9E7012CC8D16B88CC22FC
:1092000002FB07171B0A60461946FB71FFF70AFFAE
:109210000028AAD02946304603F0F6F90120A5E738
:10922000012C00F08280032CB1D16C88ED88402D98
:1092300001EB0003284628BF402014F0FF014FEA4D
:10924000142207D0012D05D91C788C4202D1013897
:1092500080B2013300906046FFF72CFA012085E7C9
:10926000012C94D10A4429463046234603F0E6F9FE
:1092700020467BE7012C8AD101EB0E02F3E7012C9B
:1092800085D1B5F806E06B880F187046402828BFD6
:10929000402013F0FF014FEA13223B4657D0BEF1A6
:1092A000010F56D9013803F8011B80B200906046C7
:1092B000FFF7EAF923189BB2002B41D1274A126825
:1092C000D2077FF552AF00BE18464FE76B78062BEA
:1092D0007FF44BAF6B881B0A212B17D0222B7FF416
:1092E00044AF6046FFF7C8F91B49CC2303FB0717BF
:1092F0000246BB882946304603F0A0F9204635E7F0
:10930000D222D8204FF0D30E67463AE7CC2303FB96
:1093100007139A68002A3FF428AF1378294630468D
:1093200002B0BDE8F04103F089B9EB88402B3FF66D
:109330001CAF0A182946304603F080F9204615E78D
:109340003A462946304603F079F901200EE70C46EB
:10935000ACE70024AAE700BFDC6E0020F0ED00E0DF
:1093600070B52C4EB4788C4282B0054613D070781C
:1093700088422CD096F8CE00884243D096F8CD0093
:10938000884244D0244B1B68DA0702D4002002B084
:1093900070BD00BEFAE7747800208C4218D002BB82
:1093A0009BB206F18C040093114623460222FFF77C
:1093B00081F9B17822462846402303F085F8002839
:1093C000E5D1154B1B68DB07E0D500BEDFE70020C9
:1093D0007AB99AB206F14C01FFF726FE012002B0DD
:1093E00070BD06F18C049BB222460221FFF71EFEDF
:1093F000DFE79BB206F14C020121FFF717FE0120C7
:1094000002B070BD96F8CD400120CC36C5E7CC3611
:109410000120DDE7DC6E0020F0ED00E070B500F12A
:1094200024050446284601F0CDFF08B9002070BD90
:109430006178002003F028F80028F7D004F50676BC
:1094400028463146402201F0E9FF054660B1034657
:1094500061783246002003F037F840B9054B1B68AD
:10946000DB07E3D500BE70BD617803F01DF8284628
:1094700070BD00BFF0ED00E070B51A4C82B0002165
:109480000D464FF41672204607F0FAFD04F138013C
:109490000123802204F11000009501F05BFF04F12C
:1094A000B80101238022009504F1240001F052FF4D
:1094B00004F59C71012004F005FF04F5C471064613
:1094C000012004F0FFFE30B9074B1B68DB0700D515
:1094D00000BE02B070BDC4E90756C4E90C0502B075
:1094E00070BD00BF4C830020F0ED00E038B5094CA2
:1094F000206A256B20B105F07DFA0023C4E907330B
:109500002DB1284605F076FA0023C4E90C3301207A
:1095100038BD00BF4C83002010B5084C002304F177
:109520001000C4E90033C4E9023302F0C1F804F1C9
:109530002400BDE8104002F0BBB800BF4C830020FF
:109540002DE9F0434B79012B83B002D18B79012BAC
:1095500004D00025284603B0BDE8F083CB79002B6A
:10956000F7D10B78CC1806466578242D99B20BD12B
:10957000914202D9EDE78A42EBD323781C440B4495
:109580006578242D99B2F6D0042DE2D16379012BB0
:10959000DFD1A379032BDCD1E579002DD9D1DFF818
:1095A000CC8098F8010098F8023050EA030905D001
:1095B0002B4B1B68DB07CCD500BECBE7A37888F824
:1095C000003027782079CB199DB2274430B922E0AA
:1095D0003B7881451D44ADB21F441CD2AA421AD328
:1095E0007B78052BF4D139463046019202F028FFF2
:1095F000019A68B3BB782079D90914BF88F8013083
:1096000088F80230397809F101030D445FFA83F9D3
:10961000ADB20F44DCE7134801F0EEFE3F2899D9C4
:1096200098F80210002002F02FFF002892D00D4879
:1096300001F0E2FE3F2898F8021005D90A4A4023BB
:10964000002002F041FF85E7002002F02DFF81E7B6
:10965000034B1B68DA077FF57CAF00BE054679E750
:10966000F0ED00E05C830020248500204C83002086
:1096700000207047F8B52D4DAA788A421E4619D1B0
:109680009AB205F5EC7105F1100001F06FFF284B5F
:1096900013B10020AFF30080264801F0ADFE3F2853
:1096A00005D9A978002002F0EFFE044668BB01242A
:1096B0002046F8BD6B788B4208D01F4B1C6814F015
:1096C0000104F5D000BE00242046F8BD0746284618
:1096D000FFF7A4FE0028EAD105F1240001F072FE94
:1096E0000028E4D1002EE2D016F03F06DFD16978E1
:1096F000384602F0C9FE04460028D8D069783846BA
:109700003346324602F0E0FED2E70A4801F074FE2A
:109710003F28A97805D9094A4023002002F0D4FE49
:10972000C6E7002002F0C0FEC2E700BF4C83002065
:10973000000000005C830020F0ED00E024850020A4
:1097400070B5324CE28AA36852BA92B286B005462E
:1097500012B1B3FBF2F292B2A06BD4F81110B0FBCD
:10976000F2F61B1AB3F5007F28BF4FF4007309BA55
:10977000009302FB16023144254B607BFFF75CF837
:10978000011E1EDB0AD08BB2214A94F82E10284607
:1097900002F09AFE002833D006B070BD94F82E3047
:1097A0000391072203A8CDE904118DF80C508DF820
:1097B0000D208DF810308DF8111002F095FC06B0D8
:1097C00070BDA268A36B43F602200021D31AA087C4
:1097D00084F83E1001200221A36284F82C0084F852
:1097E0003010002AD8D0002BD6D0237BDB0914BF41
:1097F00094F82E1094F82F10284602F0A5FECBE71F
:10980000044B1B68DB07C7D500BEC5E77472002098
:1098100074700020F0ED00E038B5214B214C054676
:109820001BB1607BFFF740F8B0B1A06BA36894F860
:109830002F101D4A1B1AB3F5007F28BF4FF4007389
:1098400028469BB202F040FE00B138BD174B1B68A2
:10985000DB07FAD500BE38BDA26BA16884F83E00D4
:109860008B1A42F207720120A2870222A36284F8B7
:109870002C0084F830200029E7D0002BE5D0237B92
:10988000DB0906D094F82E102846BDE8384002F0D7
:109890005BBE94F82F102846BDE8384002F054BE55
:1098A000A98802007472002074700020F0ED00E0BE
:1098B000044880F83C1080F83D2080F83E300120BC
:1098C000704700BF7472002002484022002107F058
:1098D000D7BB00BF7472002002484022002107F06D
:1098E000CFBB00BF747200204B79082B01D0002041
:1098F00070478B79062BFAD1CB79502BF7D1162AEA
:1099000006D81C4B1B68D907F1D500BE0020704754
:1099100070B5194D8B7885F82D300B7882B005F134
:109920002F0205F12E0619440223CDE900261A461E
:10993000044602F0F5FC30B90E4A1268D2070FD582
:1099400000BE02B070BD204695F82F1000241F23E2
:109950002A4685F8304002F0B7FD20B11720F0E725
:10996000002002B070BD034B1B68DB07F6D500BEBC
:109970001720E6E7F0ED00E074720020012901D025
:109980000120704770B5137803F07F04022C84B077
:10999000054611D003F06003202B0AD15378FE2B2B
:1099A00028D0FF2B05D153881BB9D688B3B2002B22
:1099B0003CD0002004B070BD5478012CEAD153880B
:1099C000002BF6D1374E938896F83020042ADBB26C
:1099D00050D096F82E10994236D096F82F409C42DF
:1099E00005D122B9214602F0A1FD002847D001206F
:1099F00004B070BD5388002BDBD1D388012BD8D1A4
:109A000029488DF80F3030B10192FEF767FE019AB8
:109A100001460028CDD04C1E2846114601230DF1E9
:109A20000F028DF80F4002F009FEE0E71D4C1146D1
:109A30002846A687C4E90D3384F8303084F83E30D8
:109A400002F0E2FD0120B5E7022AD0D1B26BB36883
:109A50009B1A0324B36206F120020D2386F83040DE
:109A600002F032FD0028C2D1104B1B68DB07A0D5E5
:109A700000BE9FE7194602F067FD20469AE721469F
:109A8000284602F07FFD0028B1D1002386F830304F
:109A900096F82F10034A28461F2302F015FD0028D0
:109AA000A5D1E1E774720020DD860200F0ED00E050
:109AB0002DE9F041AC4C94F83050012D8EB01E468B
:109AC000074670D0032D47D035B1022D00F08A80B3
:109AD00001200EB0BDE8F08194F82F308B42F7D111
:109AE0001F2E40F09E80A14B22689A4240F0998040
:109AF000E27B9F486368206263620120A368A562DD
:109B0000282A84F82C50A56384F83000636300F0A1
:109B1000E3802A2A00F0DE82002B00F03381207BD4
:109B2000C00940F02F81B3F5007F40F2278394F8FD
:109B30003C20A3620120022384F82C0084F83030FA
:109B400022B942F2050384F83E20A387384602F08A
:109B5000FBFC94F83050B8E794F82E308B42B7D124
:109B60000D2EB5D1E37B282B00F09A822A2B00F032
:109B70008F82804B23B1607B04F10F01AFF3008033
:109B8000002084F83000784A94F82F101F233846BC
:109B900002F09AFC0028DCD1774B1B68DA0700F151
:109BA0009980002095E7E37B282B12D02A2B59D0EF
:109BB000A36B227B3344D209A36347D0626B9A42E2
:109BC0000DD96D4B1B68DB07C3D500BE94F8305030
:109BD0007BE7D4E90D2333449342A36375D3022377
:109BE00084F8303094F82E10384602F0CBFC002870
:109BF0007FF46EAFA368A26B934202D9217BC9099F
:109C00001ED19B1A0325A36294F82E105B4A84F898
:109C1000305038460D2302F057FC00287FF458AF2F
:109C2000BAE7042394F82E1084F83030384602F056
:109C30008BFC384694F82F1002F086FC002048E791
:109C400094F82E10384602F07FFC41E7A38E4C4A70
:109C5000607B04F10F01FEF7D1FD0028C0F2F68110
:109C6000A36BABE7E08A40BA80B218B1A368B3FB3C
:109C7000F0F080B2D4F81110A26B414DB2FBF0F3BA
:109C800009BA00FB13221944607B00962B46FEF7AD
:109C9000E9FD0028C0F23A8286425CD9361A0028D3
:109CA00040F06282002194F82F200591072305A837
:109CB000CDE906168DF814708DF819108DF818205E
:109CC0008DF8153002F010FA43E7FFF739FD94F8EC
:109CD0003050FAE600BEFCE6E08A40BA80B2A3B992
:109CE00000283FF47CAF94F83C300222002184F835
:109CF0002C2084F83020A162002B7FF473AF42F255
:109D0000050284F83E30A2876CE7257BED090BD075
:109D1000002800F014828342C0F05382282A38467B
:109D2000D3D0FFF779FD14E794F83C20A362022317
:109D300084F82C3084F83030002A7FF407AF42F2E8
:109D400005020023A28784F83E30257BED09002D13
:109D50003FF4FCAED2E1D4E90D2333449342A36334
:109D6000BFF43DAF3846DCE77472002055534243E0
:109D70005553425300000000F0ED00E094720020C3
:109D800074700020657B252A27D8DFE812F00201D5
:109D900026002600C40026002600260026002600F5
:109DA0002600260026002600260026002600260083
:109DB00026003F0126002600260026002600260059
:109DC000260081002E01260026009B00260026008A
:109DD0002600260008012600540094F83C20002AA2
:109DE00040F08380B24AB3499BB22846FEF706FD95
:109DF00000287ADB002833D1A368002B3FF4EFAEB4
:109E0000A16B94F83C205B1A01200221A36284F824
:109E10002C0084F8301022B942F2050184F83E206B
:109E2000A187002B3FF4DEAE237BDB0940F0668187
:109E300094F82F108AE6284604AA05A9FEF7CCFC60
:109E4000059B002B00F0B281BDF81020002A00F025
:109E5000AD819749013B1BBA12BAC1E90032082013
:109E6000A368002B40F09381A36B94F83C205B42E5
:109E700001200221A36284F82C0084F83010002A0B
:109E80007FF4B0AE42F2050384F83E20A387A9E632
:109E9000059B894A03F4000343F003030593002A5A
:109EA00000F09D812846FEF7FFFC9DF81630804AA1
:109EB00080F0010060F3C7138DF81630059B136026
:109EC0000420CDE77D4B002B96D0227DE17C2846F7
:109ED000AFF3008000288FD194F83C302BB943F6C3
:109EE00002220023A28784F83E30A268A36B94F874
:109EF0003C100120D31A84F82C000220A36284F8BD
:109F0000300021B942F2050084F83E10A087002AF3
:109F10003FF468AE85E794F83C2094F83D0094F84F
:109F20003E10DFF88CC1DFF8A8E14FF000084FF0D9
:109F30000003CDE90588CDE9078862F303038DF8B6
:109F40001630F0220A23ADF824808DF820008DF819
:109F500021108DF814208DF81B3005AE0FCEACE823
:109F60000F003368ACF80030BEF1000F00F0318113
:109F7000ACF1100128464FF40072AFF300800028C6
:109F8000A4F83C8084F83E80BFF634AF657B636BF9
:109F900028E72846FEF7FCFB00289DD02CE705AEFD
:109FA00000230DF10E02284604A973600593B360E7
:109FB000FEF712FC049A002A00F0F880BDF80E307B
:109FC000002B00F0F38012BA5BBA08200221ADF832
:109FD0001E3006928DF817008DF81C1096E80700C9
:109FE000334B83E807000C203AE7354B002B3FF456
:109FF00003AFE17C2846C1F3400301F001020909E7
:10A00000FEF706FC00287FF4F7AE65E74FF020333B
:10A01000284600221F250692CDE90A33294E0893CF
:10A0200007A909AA079309930D930C938DF818506B
:10A030000DAB05AD0596FEF759FB0FCD1C4E0FC6B7
:10A040000FCD0FC62B683360242009E7A268A36BED
:10A0500094F83C0084F82C50D11A0225A16284F8AF
:10A06000305020B942F2050584F83E00A587002A49
:10A070003FF4A4AD00293FF4A1AD237BDB0900F040
:10A08000A28094F82E10384602F05EFAA36B95E594
:10A090000D4B002B3FF474AD607BFEF7F9FB6FE5D1
:10A0A0000A4B002B3FF46CAD607BAFF3008067E59B
:10A0B0007470002083720020A98802000000000054
:10A0C0001188020000800202918802000000000056
:10A0D00000000000E08A40BA80B2002B3FF400AEDE
:10A0E000257BED093FF414AE94F83C20A3620223D3
:10A0F00084F82C3084F83030002A72D094F82E1076
:10A10000384602F021FA94F83050DEE4A36BA268DE
:10A110003344D11A43F60220A3630023A08784F8B6
:10A120003E3001200223A16284F82C0084F83030F4
:10A13000002A3FF457AD00293FF454AD74E60120E6
:10A1400094F83C2084F82C000220A36284F83000AC
:10A15000002A7FF4FCAD42F2050084F83E20A0877F
:10A16000002B3FF43FADF0E5A36B291813FA80F301
:10A1700032462846A36306F069FF93E51C4A9BB26A
:10A18000384602F0A1F900287FF4E3AC04E59842D8
:10A1900028BF184683B26063154A94F82E103846DB
:10A1A00002F092F900287FF4D4ACF5E494F83C3046
:10A1B000002B7FF49AAE43F6022284F83E30A28749
:10A1C00093E60220BCE794F82F10384602F0BCF961
:10A1D00046E5A4F83CE084F83EE0122040E6012089
:10A1E00063E642F2050384F83E20A387ADE500BF95
:10A1F000747000202DE9F041044601F0F1FA10B925
:10A200000020BDE8F08101F0F3FA06460028F7D1FE
:10A210004FF4E671DFF8608001FB04F404F11805E7
:10A220004544284601F0CEF80028E9D008EB0407A1
:10A230003046797802F028F90028E1D004F5C67498
:10A24000444428462146402201F0E8F8054660B122
:10A250007978224630462B4602F036F940B9054B54
:10A260001B68DB07CCD500BECBE7797802F01CF980
:10A270002846C6E7F0ED00E0B472002070B51A4C35
:10A2800082B000210E464FF4E672204606F0F8FE3A
:10A2900004F12C0101234022201D009601F05AF800
:10A2A00004F16C0101234022009604F1180001F032
:10A2B00051F804F1AC01012004F004F804F1FC01B0
:10A2C0000546012003F0FEFF05B130B9074B1B68BE
:10A2D000DB0700D500BE02B070BDC4E90465C4E967
:10A2E000090602B070BD00BFB4720020F0ED00E0BE
:10A2F00038B5094C6069656A20B104F07BFB002326
:10A30000C4E904332DB1284604F074FB0023C4E9EA
:10A310000933012038BD00BFB472002010B5064CCF
:10A320002046002340F8043B01F0C2F904F1180074
:10A33000BDE8104001F0BCB9B47200204B79FF2B8E
:10A3400001D0002070472DE9F0412D4C6678A378AC
:10A35000334382B003D0002002B0BDE8F0810D7815
:10A360000E798B7823700F460D4416B36B78052B4E
:10A370000AD0AB189D4202D306E0AB4204D929783B
:10A380000D4469780529F8D1DFF87C80CDF8048088
:10A3900008F10103009332460223294601F0C0FF71
:10A3A00060B13B79A178C3EBC3031D4481B96378E5
:10A3B00053B9E81B80B202B0BDE8F081114A1268BF
:10A3C000D207C8D500BEC7E70020FFF713FFF0E7AC
:10A3D000002002F059F80028E9D008F1030001F04C
:10A3E0000BF83F2807D9A17808F24B124023002030
:10A3F00002F06AF8DBE7A178002002F055F8D6E712
:10A40000B4720020F0ED00E0B5720020F8B53B4FCB
:10A41000BC788C421D4624D07B788B421ED1384BB1
:10A4200006461BB1A9B20020AFF3008001F0D8F9B5
:10A43000B0BB344800F0C6FF20BB1DB315F03F058C
:10A4400020D17978304602F01FF80446D0B17978EF
:10A4500030462B462A4602F037F800E0002420461A
:10A46000F8BD9AB207F5A671381D01F07FF8264BAA
:10A4700013B10020AFF30080B978002002F004F897
:10A48000044608B90124EAE7204800F0B5FF3F2858
:10A49000B9782AD91E4A4023002002F015F8DEE7D9
:10A4A00001F0A6F904460028C3D1164800F08AFF3F
:10A4B0000028BED07978204601F0E6FF0028B8D009
:10A4C00014494022A1F5BA7000F0A8FF034680B1FC
:10A4D000104A7978204601F0F7FF0028D2D10E4BC0
:10A4E0001B68DB07A5D500BEA3E7002001F0DCFF59
:10A4F000B5E7797801F0D8FF9BE700BFB472002080
:10A5000000000000CC72002000000000B8720020A3
:10A510000074002040740020F0ED00E0F8B50F68F2
:10A520008D883D44AF420E46B9780BD20B468B4224
:10A530003C4603D10DE06378042B05D023781C44FE
:10A54000A542F8D80020F8BDAC42FBD2A3788B42DC
:10A55000F4D1E3789A42F1D1A542F3D9237D012BBE
:10A560001FD8237923B3012BECD12378E289617AB8
:10A570001A44194422442144914204D3E2E70B785F
:10A5800019448A42DED94B78052BF8D18A42D9D9B1
:10A5900001F056FF60B9084B1B68DB07D2D500BE3F
:10A5A000F8BD054B1B68DA07CCD500BE0020CAE712
:10A5B000E41BF4800120F8BDF0ED00E0F0B4C488A5
:10A5C0000378002C44D003EB830203EB420366487C
:10A5D0008A78C05803191D7BAA4239D822B9012DA7
:10A5E00000F2A78001228A7001258D60C1F80E500B
:10A5F0004D7700266FF03F0581F822608D766FF071
:10A6000003066FF06405CE760D77584EC1F81E60D4
:10A61000082581F82350005DB3F80D5005441D4412
:10A620000344AB4214D2524F9C78112C0CD827FA19
:10A6300004F0C04310F0010006D1DE78B24203D12D
:10A6400012E0587824280CD0187803449D42F8D89A
:10A65000484B1B68DA0702D40020F0BC704700BEEC
:10A66000FAE79D42E0D8F3E79D42F1D0042C66D092
:10A67000062CF2D191F803C01A7994451BD8BCF18D
:10A68000000F05D1012A54D84FF0010C81F803C006
:10A690001A781A44AA420ED2967806F0FD07052FC2
:10A6A0000FD0112E03D10CE05678242E44D016780A
:10A6B00032449542F8D82F4B1B68DB07CCD500BE3F
:10A6C000CBE7D678B445F2D19542F4D0D1F8125008
:10A6D0006DB9042C3CD0062C07D1B2F80530B2F885
:10A6E000075005FB03F52D01ED08C1F812504C6829
:10A6F00054B9537E012B1CD8D2F81A401BB9D2F89A
:10A700001E30A34215D14C6042F20F739C42D2D945
:10A71000194A6B1EA2FB042403EB5433640BB3FBF6
:10A72000F4F30233B3F5807F28BF4FF48073C1F890
:10A7300016300120F0BC70479542ADD8BBE701222E
:10A7400091F803C00A731A794873944597D9B2E710
:10A75000B2F80560B2F807405D7D04FB06F305FB27
:10A7600003F5ED08C1E700BF80740020030101017B
:10A7700050100200F0ED00E05917B7D12DE9F04F6D
:10A780000B78624C03EB8305894603EB450309898B
:10A79000E75883B01646804681B13944CB7803F040
:10A7A0000303012B00F09C80B9F80A3033B13B441D
:10A7B000DA7802F00302012A00F099800023B9F848
:10A7C0000240B9F80450C9F81430C9E903333C44D5
:10A7D0003D44A278AC4238BF134609D29A4203D115
:10A7E0000FE06378042B07D023781C44A542F8D8E7
:10A7F000002003B0BDE8F08FA542F9D9A3789A42B2
:10A80000F2D1E3789E42EFD1A542F1D923790193A9
:10A81000022B0FD8E31BA9F806308EB999F81D302A
:10A82000012B4BD123781C44019B6BB9012003B051
:10A83000BDE8F08F364B1B68DA07D9D500BED7E7E5
:10A8400023781C44019B6BB309F1080A4FF0000BFD
:10A85000A54206D8EEE7042BECD023781C44A54291
:10A86000E8D96378052BF6D1A542E3D9E37803F064
:10A8700003030EB1012B19D0022BB9D1214640465A
:10A8800001F0DEFD00283AD0E31B2AF8023B019AD2
:10A8900021780BF101039A420C444FF0010BD7D8F9
:10A8A000002EC3D0022389F81D30BFE7A188D9F854
:10A8B0001830C1F30A019942E0D299E709F11E0369
:10A8C000314689F81D60C9F818601846302206F034
:10A8D000D7FB01464846FFF771FE0028A2D187E763
:10A8E0000023A9F80830897801F05AFE5CE70022BD
:10A8F000A9F80A209978404601F052FE5EE7044B21
:10A900001B68DB077FF574AF00BE72E78074002020
:10A91000F0ED00E0044B05480021C3E9001150228E
:10A92000C3F8071006F0ACBB807400208C740020C4
:10A9300001207047044B05480021C3E90011502253
:10A94000C3F8071006F09CBB807400208C740020B4
:10A950002DE9F84F4B790E2B03D18B79012B0E4645
:10A9600003D000273846BDE8F88FCB79012BF8D10A
:10A97000DFF834911446D9F800202AB1484B1B68FF
:10A98000DB07EED500BEECE749468046C9F800601B
:10A99000A9F80440FFF7C2FD0028E2D0B9F806206C
:10A9A000D9F80030B17813443444A64293F814A087
:10A9B000334605D308E05A78042A3DD00B2A3BD011
:10A9C0001A7813449C42F6D8BAF1000F65D0354985
:10A9D000DFF8D8E048884FF0000C6246E3460028D4
:10A9E000CCD19D1B0EF8010B0870A8B248809C4288
:10A9F0009F784A7005D84DE05A78042A16D00B2A61
:10AA000014D01A7813449C42F6D89A1B97B28F80C0
:10AA100081F81DB0BCF1000F14D00CF1010C5FFAED
:10AA20008CF29245DBD8A9F804709BE79C42ECD9E4
:10AA30009A78BA42E5D0E8E79C42C5D99A788A422A
:10AA4000BED0C1E7BAF1010FE7D116FA85F516FAC3
:10AA500082F29542A9780AD20B46994203D113E0BB
:10AA60006B78042B0BD02B781D44AA42F8D80D49E3
:10AA700040460022FFF782FE0028D4D171E7AA42A7
:10AA8000F5D9AB789942EED1EB78012BEBD1AA4204
:10AA9000C9D1ECE707462A46B9E79B1B9FB2C2E73C
:10AAA000F0ED00E08C740020807400208874002099
:10AAB0002DE9F0471678174606F01F02012A8CB0E0
:10AAC00019D1DFF80093BB88D9F8005080465FFAAF
:10AAD00083FC15B1AA78624512D0B84E74885CB177
:10AAE000357805EB850205EB420559F805502C44F5
:10AAF000A278624511D0002420460CB0BDE8F08752
:10AB0000C6F3411A16F0600F54464ED0012C27D0E0
:10AB1000072389F809300024EEE73A78C2F3411997
:10AB200012F0600F484600F0B580012815D11B0ACD
:10AB300013D17A88100A022800F04A81062800F012
:10AB4000FA80012800F00C819D4B1B68DB0704D5BF
:10AB500000BE072333770024CEE707233377CAE705
:10AB6000180A65D0B9F80630EC18EA5CE3891A4493
:10AB70002244944214D2A1780239052902D8E178FE
:10AB800081420DD021780C44A24204D808E02378F9
:10AB90001C44A24204D96378242BF8D1A242EAD8FB
:10ABA000002389F809300124A6E77B780A2B5AD0C4
:10ABB0000B2B33D10129F3D1FB88002B4ED1B9F8EF
:10ABC0000630EA181179C1B1E85CD189537A0144A1
:10ABD000034413440A44934205D3C4E119780B4457
:10ABE0009A4240F2C08159780529F7D19A4240F241
:10ABF000BA819978404601F0D3FC0025A9F80650A7
:10AC00007A8870494046FFF789FC044630B33946DC
:10AC1000404601F0F9FC89F809506DE7684B1B6864
:10AC200013F0010364D107221C4689F8092063E769
:10AC30007B881A0A012A60D0022A4FD17B78812BA7
:10AC400000F04381862B49D10129A9D10B465E4AE8
:10AC50003946404601F0F2FC0028A1D1FF2389F8D3
:10AC60000930002448E701299AD1FB88012BF5D14E
:10AC7000B9F8062005EB020E39469EF803208DF840
:10AC800000206A4601F0DAFC04460028E6D089F884
:10AC900009A031E77B780A2B0AD00B2B0FD0484B49
:10ACA0001B68DF077FF559AF00BE0723337722E724
:10ACB000012900F0F3800023337701241CE70129E8
:10ACC000F9D17A8831464046FFF758FD002800F058
:10ACD000F9803946404601F097FCECE7384B1C6898
:10ACE00014F0010440F0D480072389F8093003E709
:10ACF00000BE072389F80930FEE67B78812B00F03F
:10AD00000F81862B00F0FC80012BE7D1012900F098
:10AD10000A8102297FF444AF2C4B002B3FF440AF53
:10AD200099F80A100020AFF30080B0FA80F489F897
:10AD300009006409E0E67B78812B00F0D380862B44
:10AD40007FF402AF0129B6D11F4A3946404601239C
:10AD500001F074FC0028AED1FF2333770024CBE64A
:10AD6000727F02B1737797F801C0BCF1010F00F058
:10AD7000E8800CF17F03DBB2062B3FF6E5AEACF1C9
:10AD80008104062C3FF6E0AEDFE804F02C3C3C3CAE
:10AD900004663C0001298ED1FB88022BDCD13024D3
:10ADA000394640466A46ADF8004001F047FC04468B
:10ADB0000028D1D0002333779EE600BF8C7400209A
:10ADC000F0ED00E080740020DD360300000000009C
:10ADD0007B78852BDED050D8012B00F0CB80812BE7
:10ADE0007FF4B2AE01297FF466AFFB88002BB3D0AD
:10ADF000B44A39464046302301F020FC00287FF455
:10AE00005AAFA9E701297FF456AFFB88002BA3D0E6
:10AE1000AC4CE94604F1300A20686168A268E36836
:10AE2000CE46AEE80F0010345445F146F4D19DF8FB
:10AE30000210002940F0C380BCF1830F00F0A48110
:10AE4000BCF1870F00F08581BCF1820F00F0818199
:10AE50000823337700244FE601297FF42CAFFB88C9
:10AE6000012B7FF479AF0B46974A3946404601F0F3
:10AE7000E5FB00287FF41FAF6EE7862B7FF464AEFE
:10AE800001297FF418AFFB88012B7FF465AFEBE756
:10AE900000BE072389F8093000242DE6FB88012B2A
:10AEA00010D1F38873B11D444046EA788DF8002034
:10AEB0000B466A46394601F0C1FB044610B186F8DC
:10AEC0001C9019E6FF23337715E601297FF468AE5D
:10AED0007E4A39464046012301F0B0FB00287FF44A
:10AEE0005FAEBBE601297FF4E6AE0B46404639462D
:10AEF00006F11C0201F0A2FB00287FF4DCAE2BE778
:10AF000001297FF44DAEFB88012B7FF4A7AE6E4A7A
:10AF10003946404601F092FB00287FF441AE9DE6A1
:10AF200001297FF43DAEFB88012B7FF497AE684A80
:10AF300039464046012301F081FB00287FF430AE02
:10AF40008CE601293FF454AF02297FF4B4AE5D4989
:10AF5000A1F11E00FFF732FB044600287FF4ABAEE0
:10AF600008233377C8E55B4B1B68DB077FF576AEBC
:10AF700000BE73E601293FF43BAF02297FF49BAE8C
:10AF80005049A1F11E00FFF719FB04460028E7D045
:10AF9000514B726BB2613BB14A4A71783078AFF372
:10AFA000008000287FF487AE002302214FF48072D6
:10AFB000C6E903337361A6F85010B2839CE59DF88F
:10AFC0000300002840F08C80F288002A3ED0AB18A5
:10AFD000AA5CB3F80D00414C104418441344984245
:10AFE00011D99A78112A0AD824FA02F2D50706D57F
:10AFF000DA78914203D107E05A78242AEFD01A7800
:10B0000013449842F8D80346BCF1830F56D0BCF1E4
:10B01000870F4BD0BCF1820F7FF41AAF01218DF85E
:10B0200003101A781A4490420ED9947804F0FD0562
:10B03000052D12D0112C03D10FE05478242CF2D01E
:10B04000147822449042F8D8024609E0214B1B684C
:10B05000DA077FF5FDAE00BEFAE6D478A142EFD163
:10B060009978042917D006297FF4F2AEB2F80510BA
:10B07000B2F8073003FB01F31B01DB08CDF81230F7
:10B080006A4639464046302301F0D8FA0446002883
:10B090007FF490AE60E6B2F80510B2F807205B7D51
:10B0A00002FB01F203FB02F3DB08E7E79A78042ACC
:10B0B00006D0062A7FF4CCAE9979B0E71979AEE7CD
:10B0C000997DACE7AA740020DE3603008974002065
:10B0D0008A740020F0ED00E0000000005010020033
:10B0E000019B002BCCD1F288002AAFD0AB1815F809
:10B0F00002E0B3F80D205A4D72449C1873449C42F0
:10B1000011D99A78112A0AD825FA02F2D20706D55F
:10B11000DA78914203D107E05A78242AEFD01A78DE
:10B1200013449C42F8D82346197819448C420ED90E
:10B130008B7803F0FD02052A2ED0112B03D12BE0D2
:10B140004B78242BF2D00B7819448C42F8D8214646
:10B1500025E001238DF8023001234FF00112029304
:10B1600000230392ADF810304FF6C04240F29B131B
:10B17000ADF81A20ADF81C303A4ACDF81E204FF435
:10B180000063ADF822307BE7F388002BE4D02B443A
:10B190001B7B8DF80230DFE7CB789842D3D1ACF13E
:10B1A0008203052B3FF654AE01A252F823F000BFF4
:10B1B00037B202001BB20200F1B1020051AE020030
:10B1C00051AE0200C9B10200D1F8152042F210734D
:10B1D000B2FBF3F30192D2B1DDF812208BB9931CCC
:10B1E000B3F5807F28BF4FF48073CDF8163047E762
:10B1F0004B7E63B9D1F8222042F21073B2FBF3F315
:10B20000E8E7013A1A44B2FBF3F30233E8E700231C
:10B21000ADF81630ADF8183032E74A7ECAB10532C3
:10B2200001EB8202D2F80220D1F81A3042F21071FA
:10B23000B3FBF1F3CEE74A7E72B1053201EB820235
:10B24000D2F80230D1F81A2042F21071B3FBF1F3B8
:10B25000C0E7D1F81E20E7E7D1F81E30F2E700BFC3
:10B2600050100200030101012DE9F84F344F3C89D1
:10B270005CB13B78334E03EB830203EB42020D4695
:10B28000B258224492788A4207D02F4B1B68DB07C2
:10B2900018D500BE0020BDE8F88FD7E904249442F9
:10B2A0000CD32A490022C7E903227A6119B17978BF
:10B2B0001846AFF300800120BDE8F88F834601F007
:10B2C000E3F810B90020BDE8F88F97F850307A699C
:10B2D0003969D7F81890A3EB02088844C1454C4659
:10B2E00028BF4446A34213D9174B1B6813F0010330
:10B2F00001D000BE0023164A2946584601F0E4F862
:10B300000028D8D1104B1B68DA07DBD500BED3E785
:10B31000F968A4EB030A50331144F818524605F0BB
:10B3200087FE7B69C14553447B6107D397F8512061
:10B3300042F00202A3B287F85120DCE7A3B2DAE7B9
:10B340008C74002080740020F0ED00E0000000000C
:10B35000DC7400202DE9F041B2F5004F9DF8188013
:10B360002CD80446C06816460F461D4618B14FF04B
:10B37000FF3103F0B7F9206918B14FF0FF3103F046
:10B38000B1F9C5F30E05E0682760002345EAC8352A
:10B390006381E580A680238118B11A46194602F020
:10B3A000E1FD206938B100231A46194602F0DAFDA2
:10B3B0000120BDE8F0810120BDE8F0810020BDE85A
:10B3C000F08100BF03894289808892B29BB2934288
:10B3D00036BFC2EB40029B1A9B189BB2984228BF13
:10B3E000184670470289438990B29BB2C01AB0FADE
:10B3F00080F04009704700BF03894289808892B27B
:10B400009BB2934236BFC2EB40029B1A9B189BB281
:10B41000984286BFC01A80B2002070472DE9F047DD
:10B42000054600698846914618B14FF0FF3103F098
:10B4300059F92B896C89AF889BB2A4B2A34236BF5D
:10B44000C4EB47061E1BF618B6B2002E4CD0B7420E
:10B4500042D34E4528BF4E46A742B6B203D8E41B9E
:10B46000A4B2A742FBD9B5F8069029683B1B9BB252
:10B47000C9F30E029E42914602FB041126D913FB2A
:10B4800002F3F71B1FFA83FA3C445246404614FB72
:10B4900009F405F0CDFD2968A2B208EB0A0005F019
:10B4A000C7FD6A89AF8892B293199BB29A421DD99F
:10B4B0007A009B1A9BB228696B8120B100231A463F
:10B4C000194602F04FFD3046BDE8F08702FB06F258
:10B4D000404605F0ADFDE4E7BB422CBFDC1BDC19A8
:10B4E000A4B26C813E46B4E76B899BB2B3EB470FC5
:10B4F0004FEA4702DFDBDCE738B5044600690D465A
:10B5000018B14FF0FF3103F0EDF822896389A1886B
:10B5100092B29BB29A4236BFC3EB4100D01A801858
:10B5200080B200B3814209D28A422CBF531A531809
:10B530009BB29942638103D85B1A9BB29942FBD9B3
:10B54000E2882168C2F30E02284602FB031105F0CF
:10B550006FFD0125206920B100231A46194602F02B
:10B5600001FD284638BD0546F4E700BF2DE9F04F40
:10B57000154683B01AB30646C068894618B14FF025
:10B58000FF3103F0AFF8F279B6F808807389B78815
:10B59000D2091FFA88F89BB215D1984536BFC3EB84
:10B5A0004703A8EB030343449BB29F422CD80025DA
:10B5B000F06820B100231A46194602F0D3FC284651
:10B5C00003B0BDE8F08FBD4250D2984536BFC3EB03
:10B5D0004702A8EB0302424492B279002A448A420D
:10B5E00019DB03EB070A1FFA8AFAAAEB05081FFA10
:10B5F00088F8434558D9A8EB01081FFA88F805EBED
:10B60000080A1FFA8AFA0AE0FB1A9AB2954228BF82
:10B610001546002DCCD005EB080A1FFA8AFA4745DB
:10B62000444603D8E41BA4B2BC42FBD2F388306882
:10B63000A7EB040B1FFA8BFBC3F30E02AB4502FB17
:10B6400004001CD302FB05F2494605F0F1FCB28868
:10B65000C2454FEA420302D3BAEB420F03DBAAEB27
:10B66000030A1FFA8AFAA6F808A0A1E7F188ED1BE1
:10B67000C1F30E0101FB059998463D46C9E71BFB46
:10B6800002FB1FFA8BFB019249465A4605F0D0FC9B
:10B69000EF1B019B3068274417FB03F292B209EBC2
:10B6A0000B0105F0C5FCD2E74145B8DCA3E700BFBC
:10B6B00010B50446C06818B14FF0FF3103F012F81E
:10B6C000206918B14FF0FF3103F00CF8E068002357
:10B6D0006381238118B11A46194602F043FC2069A0
:10B6E00020B100231A46194602F03CFC012010BD8F
:10B6F00038B50446C0680D4618B14FF0FF3102F06E
:10B70000F1FF206918B14FF0FF3102F0EBFFE37950
:10B71000E06865F3C713E37120B100231A461946A8
:10B7200002F020FC206920B100231A46194602F0DD
:10B7300019FC012038BD00BF2DE9F0411B4D1C4F05
:10B740002A781C4E0024804623460DE0336813EB14
:10B75000441323D0DB68404698472A780134E4B28A
:10B76000511DA142234606DBA242A3EB0203EDD802
:10B7700007EB4313EEE7104C38222046002105F07A
:10B780007FFC4FF0FF33C4E90233C4E90533C4E959
:10B79000073323616360A384BDE8F081074B1B6816
:10B7A000DB07F9D500BEBDE8F08100BFE0750020E1
:10B7B000EC360300DC75002034760020F0ED00E06C
:10B7C000704700BF704700BF0020704700207047DF
:10B7D000704700BF704700BF704700BF704700BF91
:10B7E000024B5878003818BF01207047347600208B
:10B7F000024B1878C0F38000704700BF34760020F9
:10B80000024B1878FF3818BF012070471C610020D8
:10B810002DE9F043334E3378FF2B83B003D0012062
:10B8200003B0BDE8F0833822002105462E4805F01C
:10B8300027FC2E4B2E49002701201F7002F042FDED
:10B840002C4B186000283DD02B4C2346626833F8FF
:10B850000C0B0097618802F013FBA168044603F00B
:10B86000EDF8264B1C6024B3254B23B12548AFF3DC
:10B870000080254B1860234FDFF894903A78DFF86A
:10B880008880002423460EE0D8F8003013EB4413E0
:10B890000FD05B686BB198473A780134E4B2511D20
:10B8A000A142234614DBA242EED89B1A09EB4313B4
:10B8B000EFE7164B1B68DB0700D500BE002003B086
:10B8C000BDE8F083114B1B68DA07F7D500BEA7E788
:10B8D0002846357001F0E6F8284601F0E5F8012029
:10B8E0009EE700BF1C6100203476002034770020E2
:10B8F000E47500206C760020C06000207076002087
:10B9000000000000E0750020DC750020F0ED00E094
:10B91000EC3603002DE9F04FDFF8209399F8003062
:10B92000FF2B8DB031D004464FF47A720023800291
:10B93000A10D05F0B9F9012838BF0120BA4DDFF893
:10B9400000A3DFF800B30646671C286800F0CE802D
:10B95000002C14BF3246002209A902F067FDA0B1F5
:10B960009DF82530013B072B00F2AB83DFE803F0A5
:10B97000B3AAA1968E3D10040A9B0BB10B98984771
:10B98000286803F02BF80028DED10DB0BDE8F08F59
:10B990009DF82810A54B01F07F0703EB470303EB4D
:10B9A000D11393F826006FF3000083F8260093F874
:10B9B00026006FF3820083F82600002F00F0A58098
:10B9C0009B4A1B7D12789342C0F09280501D984292
:10B9D000C0F294809B1A0AEB43139F699DF82920BB
:10B9E0000B9B9DF82400B847CAE7924A1378002BB6
:10B9F00000F084801378013BDBB21370137803F0FE
:10BA0000FF00002BBCD1894F9DF824803B7843F088
:10BA100001033B7097F8263060F3000387F8263067
:10BA200097F8263060F3820387F8263097F827309E
:10BA300060F3000387F8273097F8273060F382031C
:10BA400087F8273000F05EFE9DF8283003F0600292
:10BA5000602A0BD0402A00F0F78003F01F03012B6F
:10BA600000F0AD80022B79D0002B56D0724B1B68B2
:10BA7000DF0700D500BE9DF82400002101F094FAF4
:10BA80009DF82400802101F08FFA79E7674B1B783D
:10BA9000D9077FF575AFFFF7A1FE71E7634B1A7801
:10BAA000D0077FF56DAF1878C0F3C000FFF794FEA4
:10BAB00066E75E4BDB78DA077FF562AF0A98FFF73F
:10BAC00081FE5DE79DF82400FFF736FE00F010FED2
:10BAD000FFF780FE54E79DF82400FFF72DFE00F0ED
:10BAE00007FE524B9DF828209A7049E7224633E71B
:10BAF000DBF8002012EB43137FF46FAF4E4B1B6853
:10BB0000DC077FF542AF00BE3FE70B9B9DF8292085
:10BB10009DF8240000F008FE32E7202A00F0A38000
:10BB2000002AA3D19DF82930092B9FD801A252F8F1
:10BB300023F000BFBDBD0200A1BD02006DBA02002E
:10BB400085BD02006DBA02006BBD0200F5BD0200AA
:10BB50006DBA0200DFBD02008FBC02009DF82C1000
:10BB600001F07F03082B81D807EB430000EBD110D5
:10BB7000DFF8BCC090F814E09CF800000190C80900
:10BB80000290019886454FEA430380F08381DBF8F9
:10BB9000000000EB4E100190002A00F059810028AF
:10BBA0003FF469AF019F786900F0ACFD7B694046C6
:10BBB0000AAA0121984700287FF4E2AE5BE79DF8CE
:10BBC0002C300F2B3FF657AF3B44194A1B7917789F
:10BBD000BB4280F05781DBF8007017EB43173FF44E
:10BBE0004AAF786900F08EFD7B690AAA01214046C0
:10BBF000984700287FF4C4AE9DF8287017F06007BE
:10BC00007FF439AF9DF829300A3B012B3FF633AF63
:10BC100000F078FD9DF829300A2B0AA9404600F073
:10BC2000B58100F0F1FCABE67076002034760020A0
:10BC3000E075002034770020F0ED00E01C6100206A
:10BC4000EC360300DC750020BF4800283FF413AF3A
:10BC500000F058FD40460AAA0121FCF787FE0028A3
:10BC60007FF48EAE07E79DF82C300F2B3FF603AF25
:10BC70003B44B64A1B791778BB4280F04A81DBF817
:10BC8000007017EB43173FF4F6AE78698CE79DF828
:10BC90002A207B789A4200F046817B78002B40F086
:10BCA00094817A70002A00F03C81501EC0B2FCF7EB
:10BCB0009FFC002800F05D814378022B40F0598101
:10BCC000C2793978C2F340131B01C2F3801221F00C
:10BCD000300143EA42130B433B704388CDF8188090
:10BCE000CDE90164C318049300F10901049B8B4260
:10BCF00040F28F814B780B2B03BF0B7891F80380B8
:10BD0000C9184FF001084B78042B40F03081049B98
:10BD10005A1A8E4B002692B21B78059203961CE0AD
:10BD2000DBF8004014EB461400F021812369059AEA
:10BD30000698079198470828079906F101030246DB
:10BD400003D90598904280F0F380DEB27F4B0396D2
:10BD50001B785A1D964200F30A81039AB342A2EB64
:10BD60000303DDD80AEB4314E0E70AA800F0D0FC97
:10BD70009DF82A10404600F09DFE3B7843F00203F8
:10BD80003B70FDE5BDF82A30012B7FF474AE3B78A3
:10BD9000404643F008030AA93B7000F035FCEFE58C
:10BDA000BDF82A30012B7FF466AE3B7840466FF336
:10BDB000C3030AA93B7000F027FCE1E53B789F082C
:10BDC00007F00207C3F340131F43404602230DF15F
:10BDD00022020AA9ADF8227000F030FCD0E57B7891
:10BDE0008DF82230404601230DF122020AA900F00D
:10BDF00025FCC5E5BDF82A00030A5A1EC0B20E2A6A
:10BE00003FF639AE01A151F822F000BF5FC0020039
:10BE10004FC002003FC0020077BA020077BA0200AA
:10BE200021C002004FC0020077BA020077BA0200B8
:10BE300077BA020077BA020077BA020077BA020036
:10BE400077BA0200EDBF0200002A7FF414AE01921F
:10BE50009DF8292002F0FD00012827D0002A7FF458
:10BE600005AE029A3B441344404693F826700DF108
:10BE70002202C7F3400702230AA9ADF8227000F09E
:10BE8000DDFB7DE57A1D9A42FFF6F5ADDB1B0AEB83
:10BE90004317A6E600F1050CF445D5DBAEEB000038
:10BEA0000AEB40100190002AD2D07BE6BDF82A00B0
:10BEB0000390B0B9012A71D099F80000039301F002
:10BEC00073F8039B029A3B44134493F8262042F0F4
:10BED000020283F8262093F8262042F0010283F81C
:10BEE0002620019B002B3FF44BAD586900F00AFC63
:10BEF000019B0AAA5B69012140469847002000F097
:10BF000001FC97F82730DB073FF53AAD0AA9404618
:10BF100087E67A1D9A42FFF6AEADDB1B0AEB4317AC
:10BF2000B3E6FFF757FC40460AA900F06DFB27E592
:10BF3000B8F1010F00F0B380B8F1000F00F09E805F
:10BF400091F802E0002307E06D890200E07500200F
:10BF5000A045067140F292800EEB030057FA80F084
:10BF6000013390F804C0BCF1FF0FDCB2F0D0DDE982
:10BF70000164574B1B68D90700D500BE544B1B68A2
:10BF8000DA0700D500BE00237B7074E501230DF1B4
:10BF900022028DF8227000F051FBF1E499F80000C4
:10BFA000049301F025F8049B029A03993B4413443F
:10BFB00093F8262061F3410283F8262093F8262087
:10BFC00061F3000283F826208BE7002140460292AD
:10BFD00000F082FD404600F027FEBB78019340460A
:10BFE000FFF7AAFB019B029ABB705AE6394B002B64
:10BFF0003FF441ADFCF7B6FC024600283FF43BADF0
:10C00000538840460AA900F019FB00287FF4B8AC19
:10C0100031E5DDE90164DDF81880FFF7D9FB82E73F
:10C02000FFF7D2FB024600283FF425AD13784046C7
:10C030000AA900F003FB00287FF4A2AC1BE5BDF8C1
:10C040002C10FCF7DBFA02460028EFD113E5022B97
:10C0500031D0FFF7BBFB02460028D1D10BE5FCF73E
:10C06000C3FA024600283FF401AD404612230AA954
:10C0700000F0E4FA00287FF483ACFCE43346164871
:10C080000792059101F0D2FD144B079A05991B7890
:10C090001144039A05339A427FF728AE67E7236974
:10C0A0000F4C1048A34208BF4FF00208834208BF5C
:10C0B0004FF0020844E7FCF79BFA024600289FD1A4
:10C0C000D4E4034B1B68DB077FF55AAC00BE57E492
:10C0D000F0ED00E06589020048760020E075002060
:10C0E0004D8D0200419502002DE9F0434378023B5B
:10C0F00085B005460E46042B0CD8DFE803F0485CFB
:10C10000037D3E007E4B1A78D70715D51A7842F08A
:10C1100004021A707B4B18688EB933464FF0FF3219
:10C12000294601F01FFF003818BF0120E8B16978E7
:10C1300028783246FFF744FB05B0BDE8F0830023C2
:10C1400001AA2946019302F0F3F8019B43B16E4B1B
:10C150004FF080525A6040BFBFF34F8FBFF36F8FD5
:10C16000003818BF01200028E1D1684B1B68DB07AD
:10C17000E2D500BE05B0BDE8F083654A137801330F
:10C18000DBB213705F4B1868002ED8D1C5E75C4B4B
:10C190001A786FF300021A701A7800216FF34102C7
:10C1A0001A7059701A7861F382021A70554B186828
:10C1B000002EC4D1B1E7574FDFF85C813978DFF842
:10C1C0005C91002423460AE0D9F8003013EB4413B5
:10C1D0000AD10134E4B24A1DA242234615DB8C4247
:10C1E000F2D35B1A08EB4313DB69002BF1D06968CB
:10C1F000287898473978ECE7414B1A78D4079BD5D3
:10C200001A786FF382021A7084E73D4C237858073E
:10C210002BD523783B4A6FF382032370297810686B
:10C2200000230522CDE9013303938DF804108DF826
:10C23000052001A9002E51D06A46009302F078F83B
:10C24000009B43B1304B4FF080525A6040BFBFF368
:10C250004F8FBFF36F8F003818BF0120002846D1E1
:10C260002A4B1B68D90700D500BEE378DA077FF5B3
:10C2700063AF244A6B682978106802930322002375
:10C28000019303938DF804108DF8052001A9E6B100
:10C290006A46009302F04CF8009B43B11A4B4FF0F2
:10C2A00080525A6040BFBFF34F8FBFF36F8F00388B
:10C2B00018BF012000283FF458AF9DF805109DF8E5
:10C2C00004003246FFF77CFA36E733464FF0FF3280
:10C2D00001F048FE003818BF0120EBE733464FF06D
:10C2E000FF3201F03FFE003818BF0120B6E79DF88D
:10C2F00005109DF804003246FFF762FAB5E700BF6B
:10C30000347600207076002000ED00E0F0ED00E0D3
:10C3100034770020E0750020EC360300DC75002047
:10C320002DE9F84F0A9F002A3ED0DFF88890DFF809
:10C3300088800C461E4615464FF0000B18E098F812
:10C34000021099F800A001F03DFC0346214650463A
:10C35000E3B100F0D5FBF0B1A378DA0916BF0B9A70
:10C360003B70137023780BF1010BAB451C441BD0C1
:10C370006378052B20460ED1E17801F00301B1422C
:10C3800009D1A37803F07F03082BD8D9084B1B6889
:10C39000DA0700D500BE064B1B68DB0702D400207D
:10C3A000BDE8F88F00BEFAE70120BDE8F88F00BFB6
:10C3B000F0ED00E01C6100203476002070B51D4EC9
:10C3C00084B000230825CDE90201019330688DF87F
:10C3D0000550144682B9134601A94FF0FF3201F00F
:10C3E000C1FD003818BF0120D8B9134B1B68DB070B
:10C3F00000D500BE04B070BD6A4601A9009301F0EB
:10C4000097FF009B43B10D4B4FF080525A6040BFE5
:10C41000BFF34F8FBFF36F8F003818BF0120002884
:10C42000E3D09DF805109DF804002246FFF7C8F9F7
:10C4300004B070BD70760020F0ED00E000ED00E08B
:10C4400038B58B7803F07F03082B06D90B4B1B689C
:10C45000DB0700D500BE002038BD094A094B0C4659
:10C46000204691781D7801F0ADFB0028EED02146E2
:10C470002846BDE8384000F043BB00BFF0ED00E0C7
:10C48000347600201C610020CB090548054A26337C
:10C4900001F07F0103EB41010844116801F048BB42
:10C4A000347600206C760020CB090548054A2633F7
:10C4B00001F07F0103EB41010844116801F064BB06
:10C4C000347600206C760020154838B501F07F05E1
:10C4D00000EB450000EBD1142034A079C00706D54D
:10C4E000104B1B68DA0700D500BE002038BDA579C7
:10C4F0000D4845F001050078A57100F049FC0028C1
:10C50000F4D1A379074A60F30003A371A37960F320
:10C510008203A3711368DB07E7D500BE38BD00BFF7
:10C5200034760020F0ED00E01C610020054B01F0A6
:10C530007F0203EB420303EBD11191F8260000F0D8
:10C54000010070473476002010B50C4B18780C466B
:10C5500000F02AFD0A4B04F07F0103EB410303EBDB
:10C56000D41191F8263043F0020381F8263091F877
:10C57000263043F0010381F8263010BD1C610020F5
:10C5800034760020054B01F07F0203EB420303EBFE
:10C59000D11191F82600C0F3400070473476002096
:10C5A000144BFBB110B5144B18780C4600F086FB09
:10C5B000124B04F07F0103EB410303EBD41191F81C
:10C5C00026306FF3410381F8263091F826306FF35F
:10C5D000000381F8263091F826306FF3820381F84A
:10C5E000263010BD064B1B68DB0701D500BE704727
:10C5F000704700BFBDCC02001C61002034760020D3
:10C60000F0ED00E0704700BF0B4630B40A4C4968BB
:10C6100005461868224603C293F9002000239A4277
:10C62000C4E902332846A8BF802130BCB8BF1946F0
:10C630001A46FFF749BF00BF38770020F0B50C4617
:10C64000284F496806462068BA603D4603C5002168
:10C65000F981E588AB4228BF2B4683B0BB81A5B1E9
:10C660001BB352B397F90000402B28BF402300288A
:10C670002ADB1D4A3046FFF727FF98B91B4B1B6882
:10C68000DB071ED500BE03B0F0BD94F90030002BCF
:10C69000ACBF8021002130462B462A46FFF714FF0D
:10C6A0000028EBD0012003B0F0BD97F90020002A4C
:10C6B000ACBF194680211A46DCE70C4B1B68D90732
:10C6C0000CD4002003B0F0BD1146074801931A4670
:10C6D00004F0AEFC044A019B8021CBE700BE10466B
:10C6E000E1E700BF387700204C770020F0ED00E054
:10C6F000034B0022C3E90022C3E902221A617047FA
:10C7000038770020014B1861704700BF3877002050
:10C710000346044A59680068134603C30023C2E96C
:10C720000233704738770020F0B5404C2578C909AE
:10C73000B1EBD51F83B01F4606461FD03BB13C4B23
:10C740001B68DA0700D500BE002003B0F0BD21460B
:10C75000FFF758FF236973B12246304603219847FB
:10C76000012003B0F0BD0146304600F01DFC30460C
:10C77000802100F019FC012003B0F0BD94F90020E5
:10C78000002A06DBA0680028DED02A491A4604F0F9
:10C790004FFCE589A168E2883D44ADB23944AA4224
:10C7A000E581A16015D03F2F13D9A28994F900002B
:10C7B000531B9BB2402B28BF4023002824DB95420B
:10C7C00030D01C4A00213046FFF77EFE0028D2D12F
:10C7D00014E023692BB1154A0221304698470028FE
:10C7E000C1D094F9002000239A42ACBF80211946A1
:10C7F00030461A46FFF768FE0028BCD10C4B1B6878
:10C80000DB07A1D500BEA0E7954208D01A4609482B
:10C81000019304F00DFC074A019B8021D3E780219E
:10C820000022D0E700210A46CDE700BF387700207C
:10C83000F0ED00E04C77002042DF704743DF7047A7
:10C8400044DF704712DF7047F0B4364CBFF35B8FA4
:10C85000014604F590730125D3E84F2FC3E8405FEC
:10C860000028F9D1BFF35B8F12F0FF0F3CD10829EC
:10C870002CD004EB41122C482C4F01F5947301EBA2
:10C88000810C50F823609388D2889A1A93B2B6B27A
:10C8900000EB8C024FEA411CB34208B228BF33467A
:10C8A00054F80C60C2F8006707EB8101C2F8043746
:10C8B00047F82050BFF36F8FBFF34F8F1C4B994247
:10C8C00009D0043B994206D0F0BC7047164BD3F810
:10C8D000C024D10313D5BFF35B8F002384F820312C
:10C8E000BFF35B8FF0BC7047124B13485A68C2F31A
:10C8F0000802003AF0BC18BF0122FFF75FBD94F8B0
:10C900000B110029E7D00D49D4F80001C3F8A007A6
:10C91000C3F8A4270D60BFF36F8FBFF34F8FF0BC38
:10C92000704700BF8C7700200070024028700240E2
:10C930005070024000ED00E0B5C9020048700240AE
:10C94000174BBFF35B8F01460122D3E84F0FC3E8BB
:10C950004C2FBCF1000FF8D1BFF35B8F10F0FF0F2D
:10C9600014D10A60BFF36F8FBFF34F8F0D4B994205
:10C9700003D0043B994200D070470B4BBFF35B8F51
:10C98000002283F82021BFF35B8F7047074B0848D4
:10C990005A68C2F30802003A18BF0122FFF70EBD21
:10C9A000AC780020507002408C77002000ED00E051
:10C9B00041C90200F0B4344CBFF35B8FC1B204F53F
:10C9C00090730125D3E84F2FC3E8405F0028F9D1C9
:10C9D000BFF35B8F12F0FF0F39D1082929D02B4804
:10C9E0002B4F01F5947304EB411250F823609388A8
:10C9F000D28801EB810C9A1A93B2B6B200EB8C028A
:10CA00004801B3422058C2F8000728BF3346C2F895
:10CA1000043707EB810047F82150BFF36F8FBFF356
:10CA20004F8F1C4B984209D0043B984206D0F0BC73
:10CA30007047164BD3F8C024D10313D5BFF35B8FD7
:10CA4000002384F82031BFF35B8FF0BC7047124B9A
:10CA500012485A68C2F30802003AF0BC18BF01221B
:10CA6000FFF7ACBC94F80B110029E7D00C49D4F8BF
:10CA70000001C3F8A007C3F8A4270D60BFF36F8FB0
:10CA8000BFF34F8FF0BC70478C77002000700240DE
:10CA9000287002405070024000ED00E0B5C902006D
:10CAA00048700240704700BF014B80225A607047B7
:10CAB00000E100E0074BD3F80014D3F80024002075
:10CAC0000A434FF48001C3F80024C3F85801C3F8A7
:10CAD0000413704700700240074B4FF4001229B155
